:100000000C9434000C9449000C9449000C94490061
:100010000C9449000C9449000C9449000C9449003C
:100020000C9449000C9449000C9449000C9449002C
:100030000C9449000C9449000C9449000C9449001C
:100040000C9449000C9449000C9449000C9449000C
:100050000C9449000C9449000C9449000C944900FC
:100060000C9449000C94490011241FBECFEFD8E036
:10007000DEBFCDBF11E0A0E0B1E0EAEDF7E002C0E5
:1000800005900D92A031B107D9F70E9461010C943F
:10009000EB030C94000085B1886085B985E08A95F2
:1000A000F1F7000085B1877F85B987EC90E0019773
:1000B000F1F700C0000008959BB1937C9BB983FFCA
:1000C00003C09BB194609BB982FF03C09BB1986051
:1000D0009BB981FF03C09BB190619BB980FF03C0B6
:1000E0008BB180628BB90E944B000895CF93C82FCB
:1000F000613021F485B1806185B903C085B18F7EFF
:1001000085B98C2F82958F700E945C008C2F8F7028
:100110000E945C00CF910895CF93C82F60E00E94A9
:100120007600C150C23030F48FE39FE10197F1F7C0
:1001300000C00000CF91089561E00E94760008950C
:10014000882311F090E401C090E0862F8F70890F12
:1001500080680E948C000895CF93DF93EC0103C068
:1001600021960E949C0088818111FACFDF91CF9166
:10017000089581E00E948C00089584B1806184B963
:1001800084B1886084B98AB18C638AB92FEF89EF12
:1001900090E0215080409040E1F700C0000085B120
:1001A0008F7E85B985B1877F85B983E00E945C0029
:1001B0008FE19EE40197F1F700C0000083E00E9408
:1001C0005C0087E592E00197F1F700C0000083E052
:1001D0000E945C0087E592E00197F1F700C0000003
:1001E00082E00E945C0087E592E00197F1F700C091
:1001F000000088E20E948C0088E00E948C0081E070
:100200000E948C0086E00E948C008CE00E948C0092
:1002100008951F93CF93DF9300D000D000D0CDB7C7
:10022000DEB7AC01892B91F580E30E949C003FC0B2
:100230009A01ADECBCEC0E94DC03969587959695EF
:100240008795969587959C01220F331F880F991FDC
:10025000880F991F880F991F820F931F9A01281BDF
:10026000390BC901E1E0F0E0EC0FFD1FE10FF11DDA
:10027000805D80839A010E94DC03AC01569547950E
:1002800056954795569547951F5F01C010E041155B
:10029000510571F60AC01150E1E0F0E0EC0FFD1FCE
:1002A000E10FF11D80810E949C001111F4CF269670
:1002B0000FB6F894DEBF0FBECDBFDF91CF911F9177
:1002C00008950E94BD0087B1877F87B9ECE7F0E011
:1002D000808180648083808181608083808182606E
:1002E0008083EAE7F0E08081806880838081846099
:1002F000808380818260808380818160808384B1FB
:10030000846084B984B1806284B984B1826084B924
:10031000EAE7F0E080818064808380917A0084FD48
:10032000FCCFEAE7F0E0808180618083C0917800B3
:10033000D0917900BE0180E090E00E94B80220E0F8
:1003400030E040EA50E40E946F0320E030E040E8F3
:100350005AE30E946F0320E030E048EC52E40E9430
:100360006F036B017C010E9489022B013C0180E03C
:1003700090E00E94B8029B01AC01C701B6010E9447
:100380001C0220E030E040E251E40E946F030E9432
:1003900089024B015C010E94B90060E080E00E948C
:1003A000A00080E091E00E94AC0066E080E00E9446
:1003B000A000C2010E94090186E091E00E94AC0009
:1003C000C4010E94090188E091E00E94AC0060E055
:1003D00081E00E94A0008AE091E00E94AC00CE0182
:1003E0000E94090184B1846084B920E030E044E3D4
:1003F00052E4C701B6010E946A03181654F485B18D
:10040000846085B985B1806285B985B18D7F85B9F4
:1004100009C085B18B7F85B985B18F7D85B985B1DF
:100420008D7F85B92FEF83ED90E321508040904080
:10043000E1F700C0000063CF5058BB27AA270E94F5
:1004400034020C9430030E94220338F00E942903E6
:1004500020F039F49F3F19F426F40C941F030EF496
:10046000E095E7FB0C941903E92F0E94410358F330
:10047000BA17620773078407950720F079F4A6F589
:100480000C9463030EF4E0950B2EBA2FA02D0B01F4
:10049000B90190010C01CA01A0011124FF27591BC9
:1004A00099F0593F50F4503E68F11A16F040A22FCF
:1004B000232F342F4427585FF3CF46953795279540
:1004C000A795F0405395C9F77EF41F16BA0B620B3F
:1004D000730B840BBAF09150A1F0FF0FBB1F661F86
:1004E000771F881FC2F70EC0BA0F621F731F841FC9
:1004F00048F4879577956795B795F7959E3F08F0EF
:10050000B0CF9395880F08F09927EE0F97958795B0
:1005100008950E94490388F09F5798F0B92F9927B2
:10052000B751B0F0E1F0660F771F881F991F1AF0DE
:10053000BA95C9F714C0B13091F00E946303B1E0DD
:1005400008950C946303672F782F8827B85F39F0DC
:10055000B93FCCF3869577956795B395D9F73EF477
:1005600090958095709561957F4F8F4F9F4F08951F
:10057000E89409C097FB3EF490958095709561953D
:100580007F4F8F4F9F4F9923A9F0F92F96E9BB27F3
:100590009395F695879577956795B795F111F8CF6F
:1005A000FAF4BB0F11F460FF1BC06F5F7F4F8F4FDA
:1005B0009F4F16C0882311F096E911C0772321F0D0
:1005C0009EE8872F762F05C0662371F096E8862F68
:1005D00070E060E02AF09A95660F771F881FDAF7BF
:1005E000880F9695879597F90895990F0008550FEC
:1005F000AA0BE0E8FEEF16161706E807F907C0F0A9
:1006000012161306E407F50798F0621B730B840BB0
:10061000950B39F40A2661F0232B242B252B21F48A
:1006200008950A2609F4A140A6958FEF811D811D2A
:10063000089597F99F6780E870E060E008959FEF64
:1006400080EC089500240A94161617061806090669
:10065000089500240A941216130614060506089538
:10066000092E0394000C11F4882352F0BB0F40F4C0
:10067000BF2B11F460FF04C06F5F7F4F8F4F9F4F00
:10068000089557FD9058440F551F59F05F3F71F082
:100690004795880F97FB991F61F09F3F79F08795E9
:1006A0000895121613061406551FF2CF4695F1DF72
:1006B00008C0161617061806991FF1CF8695710502
:1006C000610508940895E894BB2766277727CB0136
:1006D00097F908950E94F50208F48FEF08950E949B
:1006E00082030C9430030E94220338F00E942903F5
:1006F00020F0952311F00C9419030C941F0311247E
:100700000C9464030E94410370F3959FC1F3950F0D
:1007100050E0551F629FF001729FBB27F00DB11D85
:10072000639FAA27F00DB11DAA1F649F6627B00D15
:10073000A11D661F829F2227B00DA11D621F739FFE
:10074000B00DA11D621F839FA00D611D221F749F0C
:100750003327A00D611D231F849F600D211D822F53
:10076000762F6A2F11249F5750409AF0F1F088237A
:100770004AF0EE0FFF1FBB1F661F771F881F9150A7
:100780005040A9F79E3F510580F00C9419030C943A
:1007900064035F3FE4F3983ED4F3869577956795BD
:1007A000B795F795E7959F5FC1F7FE2B880F911DD1
:1007B0009695879597F90895A29FB001B39FC001C0
:1007C000A39F700D811D1124911DB29F700D811D7D
:0A07D0001124911D0895F894FFCF45
:1007DA0074656D703A002E0043004144433A0000AC
:00000001FF
