:100000000C945A000C946F000C946F000C946F00C9
:100010000C946F000C946F000C946F000C946F00A4
:100020000C946F000C946F000C946F000C946F0094
:100030000C946F000C946F000C946F000C946F0084
:100040000C946F000C946F000C946F000C946F0074
:100050000C946F000C946F000C946F000C946F0064
:100060000C946F000C946F000C946F000C946F0054
:100070000C946F000C946F000C946F000C946F0044
:100080000C946F000C946F000C946F000C946F0034
:100090000C946F000C946F000C946F000C946F0024
:1000A0000C946F000C946F000C946F000C946F0014
:1000B0000C946F0011241FBECFEFD8E0DEBFCDBF80
:1000C00011E0A0E0B1E0E2EAF6E002C005900D9296
:1000D000A231B107D9F70E9487010C944F030C9409
:1000E000000085B1886085B985E08A95F1F7000048
:1000F00085B1877F85B987EC90E00197F1F700C063
:10010000000008959BB1937C9BB983FF03C09BB112
:1001100094609BB982FF03C09BB198609BB981FF3B
:1001200003C09BB190619BB980FF03C08BB180621B
:100130008BB90E9471000895CF93C82F613021F4CC
:1001400085B1806185B903C085B18F7E85B98C2F5B
:1001500082958F700E9482008C2F8F700E94820087
:10016000CF910895CF93C82F60E00E949C00C150AA
:10017000C23030F48FE39FE10197F1F700C0000037
:10018000CF91089561E00E949C000895882311F0AA
:1001900090E401C090E0862F8F70890F80680E94E4
:1001A000B2000895CF93DF93EC0103C021960E9423
:1001B000C20088818111FACFDF91CF91089581E04B
:1001C0000E94B200089584B1806184B984B18860CE
:1001D00084B98AB18C638AB92FEF89EF90E02150FE
:1001E00080409040E1F700C0000085B18F7E85B966
:1001F00085B1877F85B983E00E9482008FE19EE40C
:100200000197F1F700C0000083E00E94820087E5BB
:1002100092E00197F1F700C0000083E00E948200A5
:1002200087E592E00197F1F700C0000082E00E94AC
:10023000820087E592E00197F1F700C0000088E2B4
:100240000E94B20088E00E94B20081E00E94B200E9
:1002500086E00E94B2008CE00E94B20008951F93D5
:10026000CF93DF9300D000D000D0CDB7DEB7AC0184
:10027000892B91F580E30E94C2003FC09A01ADEC4A
:10028000BCEC0E9440039695879596958795969528
:1002900087959C01220F331F880F991F880F991F84
:1002A000880F991F820F931F9A01281B390BC901D0
:1002B000E1E0F0E0EC0FFD1FE10FF11D805D8083B8
:1002C0009A010E944003AC01569547955695479573
:1002D000569547951F5F01C010E04115510571F615
:1002E0000AC01150E1E0F0E0EC0FFD1FE10FF11D3D
:1002F00080810E94C2001111F4CF26960FB6F894A7
:10030000DEBF0FBECDBFDF91CF911F9108950E9438
:10031000E3001092C50087E68093C4008AB1806430
:100320008AB983E884BD84E085BDE1ECF0E080819A
:100330008061808380818860808386E08093C200B2
:1003400087B1877F87B984B1866084B983E480935D
:100350007C0087E880937A0085B1826085B985B199
:100360008B7F85B9C0E0EAE7F0E08081806480831C
:1003700080917A0086FDFCCF6091780070917900C1
:1003800080E090E00E94450228E431EE4AEF5EE30F
:100390000E94D3020E940F02D62F172F0E94DF0067
:1003A0008091C000D093C6002FEF87EA91E62150DC
:1003B00080409040E1F700C0000017BCCD3318F03A
:1003C0008FEF87BD06C0CF3118F080E887BD01C030
:1003D00017BC60E080E00E94C60080E091E00E94CF
:1003E000D2008C2F90E00E942F0160E081E00E94FB
:1003F000C60089E091E00E94D2008D2F912F0E94CB
:100400002F018091C000C091C6002FEF87EA91E6CE
:10041000215080409040E1F700C00000A4CF0E942E
:1004200016026894B1110C94CD0208950E94B20294
:1004300088F09F5798F0B92F9927B751B0F0E1F0A5
:10044000660F771F881F991F1AF0BA95C9F714C055
:10045000B13091F00E94CC02B1E008950C94CC022E
:10046000672F782F8827B85F39F0B93FCCF386958E
:1004700077956795B395D9F73EF4909580957095EB
:1004800061957F4F8F4F9F4F0895E89409C097FB68
:100490003EF490958095709561957F4F8F4F9F4F5B
:1004A0009923A9F0F92F96E9BB279395F69587959F
:1004B00077956795B795F111F8CFFAF4BB0F11F462
:1004C00060FF1BC06F5F7F4F8F4F9F4F16C0882309
:1004D00011F096E911C0772321F09EE8872F762F3F
:1004E00005C0662371F096E8862F70E060E02AF080
:1004F0009A95660F771F881FDAF7880F969587956C
:1005000097F9089597F99F6780E870E060E0089593
:100510009FEF80EC089500240A941616170618061B
:100520000906089500240A941216130614060506F7
:100530000895092E0394000C11F4882352F0BB0F88
:1005400040F4BF2B11F460FF04C06F5F7F4F8F4FEB
:100550009F4F089557FD9058440F551F59F05F3F26
:1005600071F04795880F97FB991F61F09F3F79F0D5
:1005700087950895121613061406551FF2CF469557
:10058000F1DF08C0161617061806991FF1CF8695D9
:100590007105610508940895E894BB2766277727BD
:1005A000CB0197F908950E94E6020C9499020E94EB
:1005B0008B0238F00E94920220F0952311F00C94E7
:1005C00082020C94880211240C94CD020E94AA028B
:1005D00070F3959FC1F3950F50E0551F629FF00196
:1005E000729FBB27F00DB11D639FAA27F00DB11DAF
:1005F000AA1F649F6627B00DA11D661F829F222738
:10060000B00DA11D621F739FB00DA11D621F839FBE
:10061000A00D611D221F749F3327A00D611D231F94
:10062000849F600D211D822F762F6A2F11249F57E2
:1006300050409AF0F1F088234AF0EE0FFF1FBB1FE5
:10064000661F771F881F91505040A9F79E3F5105A4
:1006500080F00C9482020C94CD025F3FE4F3983E4C
:10066000D4F3869577956795B795F795E7959F5F4E
:10067000C1F7FE2B880F911D9695879597F90895E0
:10068000A29FB001B39FC001A39F700D811D1124D3
:10069000911DB29F700D811D1124911D0895F89434
:0206A000FFCF8A
:1006A200526563696576653A004C6F63616C3A2006
:0206B200000046
:00000001FF
