:100000000C9434000C9449000C9449000C94490061
:100010000C9449000C9449000C9449000C9449003C
:100020000C9449000C9449000C9449000C9449002C
:100030000C9449000C9449000C9449000C9449001C
:100040000C9449000C9449000C9449000C9449000C
:100050000C9449000C9449000C9449000C944900FC
:100060000C9449000C94490011241FBECFEFD8E036
:10007000DEBFCDBF11E0A0E0B1E0E4E4F1E002C0FA
:1000800005900D92A630B107D9F70E944B000C9451
:10009000A0000C940000CF93DF9300D000D000D0DC
:1000A000CDB7DEB71092C50087E68093C400E2ECBE
:1000B000F0E080818F7D808380818F778083808155
:1000C00086608083E1ECF0E080818860808386E058
:1000D000E0E0F1E0DE01119601900D928A95E1F7E2
:1000E00020E030E014C0E1E0F0E0EC0FFD1FE20F93
:1000F000F31F80818093C6008091C00086FFFCCFF3
:10010000E0ECF0E08081806480832F5F3F4F2630F9
:1001100031054CF38AE08093C6008091C00086FFD1
:10012000FCCFE0ECF0E08081806480832FEF83EDF2
:1001300090E3215080409040E1F700C00000C7CF1D
:04014000F894FFCF61
:0601440048454C4C4F0041
:00000001FF
